:100000000C942A000C943C000C943C000C943C0092
:100010000C943C000C943C000C943C000C943C0070
:100020000C943C000C943C000C943C000C943C0060
:100030000C943C000C9493000C943C000C943C00F9
:100040000C943C000C943C000C943C000C943C0040
:100050000C943C0011241FBECFE5D8E0DEBFCDBF1D
:1000600020E0A0E6B0E001C01D92A236B207E1F7A1
:100070000E94B7000C94C7000C940000D8982FEF92
:1000800081EE94E0215080409040E1F700C00000F4
:10009000D89A2FEF81EE94E0215080409040E1F714
:1000A00000C00000D9982FEF81EE94E021508040ED
:1000B0009040E1F700C00000D99A2FEF81EE94E064
:1000C000215080409040E1F700C00000DA982FEF07
:1000D00081EE94E0215080409040E1F700C00000A4
:1000E000DA9A2FEF81EE94E0215080409040E1F7C2
:1000F00000C0000008958AB387608ABBD89AD99A55
:10010000DA9A089590BD89B988E98AB986E880BDF0
:10011000089581B38C6081BB9398929808955F9BFA
:10012000FECF8CB108951F921FB61F9211248F939A
:100130008CB18736A9F0823741F48091610081301B
:1001400049F493989298109261008F911F901FBE6E
:100150001F9018959298939A81E080936100F5CF53
:10016000809161009398813069F3929AF5CF0E9453
:100170007B000E94890083E390E00E9482000E943D
:100180003E000E943E000E943E007894FFCFF8940B
:02019000FFCF9F
:00000001FF
